:100000000C9436000C945E000C945E000C945E0020
:100010000C945E000C945E000C945E000C945E00E8
:100020000C945E000C945E000C945E000C945E00D8
:100030000C945E000C945E000C945E000C945E00C8
:100040000C9411020C945E000C9481020C945B02DF
:100050000C945E000C945E000C945E000C945E00A8
:100060000C945E000C945E00B302FA0311241FBED0
:10007000CFEFD8E0DEBFCDBF11E0A0E0B1E0E0EB14
:10008000FEE002C005900D92A034B107D9F721E03F
:10009000A0E4B1E001C01D92AC3FB207E1F710E06F
:1000A000C5E3D0E004C02197FE010E944A05C43395
:1000B000D107C9F70E94F1020C944B070C94000081
:1000C000AF92BF92CF92DF92EF92FF920F931F9366
:1000D000CF93DF936C017B018B01040F151FEB01A4
:1000E0005E01AE18BF08C017D10759F06991D6015B
:1000F000ED91FC910190F081E02DC6010995892BCD
:1001000079F7C501DF91CF911F910F91FF90EF908B
:10011000DF90CF90BF90AF900895FC01538D448D38
:10012000252F30E0842F90E0821B930B541710F0A2
:10013000CF96089501970895FC01918D828D9817AF
:1001400061F0A28DAE0FBF2FB11D5D968C91928D87
:100150009F5F9F73928F90E008958FEF9FEF0895B8
:100160002FB7F8948091450190914601A0914701E5
:10017000B09148012FBF8093510190935201A093F9
:100180005301B093540189E491E00E949C0097FFD1
:1001900026C02FB7F8948091450190914601A09117
:1001A0004701B09148012FBF409151015091520138
:1001B0006091530170915401841B950BA60BB70BF2
:1001C00040914D0150914E0160914F01709150014D
:1001D00084179507A607B707B0F28FEF9FEF089532
:1001E000FC01918D828D981731F0828DE80FF11D01
:1001F000858D90E008958FEF9FEF0895FC01918D1C
:10020000228D892F90E0805C9F4F821B91098F7314
:100210009927089589E491E00E94FE0021E0892B4E
:1002200009F420E0822F089580E090E0892B29F0E6
:100230000E940A0181110C9400000895FC01A48D14
:10024000A80FB92FB11DA35ABF4F2C91848D90E0F8
:1002500001968F739927848FA689B7892C93A089DB
:10026000B1898C91837080648C93938D848D981365
:1002700006C00288F389E02D80818F7D80830895F8
:10028000EF92FF920F931F93CF93DF93EC0181E0E6
:10029000888F9B8D8C8D98131AC0E889F98980818D
:1002A00085FF15C09FB7F894EE89FF896083E889C0
:1002B000F98980818370806480839FBF81E090E0B2
:1002C000DF91CF911F910F91FF90EF900895F62E3F
:1002D0000B8D10E00F5F1F4F0F731127E02E8C8DD9
:1002E0008E110CC00FB607FCFACFE889F98980811E
:1002F00085FFF5CFCE010E941E01F1CFEB8DEC0FF3
:10030000FD2FF11DE35AFF4FF0829FB7F8940B8F3A
:10031000EA89FB8980818062CFCFCF93DF93EC01A4
:10032000888D8823B9F0AA89BB89E889F9898C91DD
:1003300085FD03C0808186FD0DC00FB607FCF7CF99
:100340008C9185FFF2CF808185FFEDCFCE010E9499
:100350001E01E9CFDF91CF9108950F931F93CF93A3
:10036000DF93EC0188819981009759F02A813B81C4
:100370002617370730F081E0DF91CF911F910F9161
:1003800008958B016F5F7F4F0E947506009759F0AB
:10039000998388831B830A832C813D81232B59F702
:1003A000FC011082E8CF80E0E7CFEF92FF920F933D
:1003B0001F93CF93DF93EC017B01198218821B827C
:1003C0001A821D821C82FB0101900020E9F73197FF
:1003D0008F01061B170BB8010E94AD0128813981DE
:1003E000811113C02115310519F0C9010E94EC05D6
:1003F000198218821D821C821B821A82DF91CF9182
:100400001F910F91FF90EF9008951D830C83B7010A
:10041000C901DF91CF911F910F91FF90EF900C9444
:1004200044071F920F920FB60F9211242F933F9300
:100430008F939F93AF93BF93809145019091460115
:10044000A0914701B09148013091440123E0230F6E
:100450002D3758F50196A11DB11D209344018093BD
:10046000450190934601A0934701B09348018091C4
:10047000400190914101A0914201B0914301019648
:10048000A11DB11D8093400190934101A0934201B1
:10049000B0934301BF91AF919F918F913F912F9165
:1004A0000F900FBE0F901F90189526E8230F02960D
:1004B000A11DB11DD2CF1F920F920FB60F92112422
:1004C0002F933F934F935F936F937F938F939F935C
:1004D000AF93BF93EF93FF9389E491E00E941E01D5
:1004E000FF91EF91BF91AF919F918F917F916F910C
:1004F0005F914F913F912F910F900FBE0F901F90E2
:1005000018951F920F920FB60F9211242F938F936D
:100510009F93EF93FF93E0915901F0915A018081ED
:10052000E0915F01F091600182FD1BC0908180919C
:1005300062018F5F8F7320916301821741F0E09118
:100540006201F0E0E75BFE4F958F80936201FF91BF
:10055000EF919F918F912F910F900FBE0F901F9051
:1005600018958081F4CFE9E4F1E01382128288EEDD
:1005700093E0A0E0B0E084839583A683B7838EE008
:1005800091E09183808385EC90E09587848784EC6B
:1005900090E09787868780EC90E0918B808B81EC50
:1005A00090E0938B828B82EC90E0958B848B86EC31
:1005B00090E0978B868B118E128E138E148E6CE1C9
:1005C00071E086EE91E00E94D50164E271E08CEE6C
:1005D00091E00E94D5016CE271E082EF91E00C9411
:1005E000D501CF93DF93CDB7DEB728970FB6F89438
:1005F000DEBF0FBECDBF789484B5826084BD84B564
:10060000816084BD85B5826085BD85B5816085BD0D
:1006100080916E00816080936E00109281008091C5
:10062000810082608093810080918100816080934D
:100630008100809180008160809380008091B10072
:1006400084608093B1008091B00081608093B0009D
:1006500080917A00846080937A0080917A00826031
:1006600080937A0080917A00816080937A008091F3
:100670007A00806880937A001092C100E09159015D
:10068000F0915A0182E08083E0915501F09156018A
:100690001082E0915701F09158018FEC8083109205
:1006A0006101E0915D01F0915E0186E08083E0915F
:1006B0005B01F0915C01808180618083E0915B014E
:1006C000F0915C01808188608083E0915B01F09112
:1006D0005C01808180688083E0915B01F0915C0126
:1006E00080818F7D808383E0882E912CA12CB12C7A
:1006F00096E0D92E20E0E22E20E0F22E1A82198216
:100700001C821B821E821D8270E060E0CE01019679
:100710000E94AD0129813A8181112BC0211531053B
:1007200019F0C9010E94EC051A8219821E821D82ED
:100730001C821B820E94B0000D811E8197FD21C08A
:100740008F8318860F5F1F4FB801CE0101960E945C
:10075000AD01882379F329813A818D819E81BE0183
:10076000695F7F4F820F931F0E9444071E830D8392
:10077000E1CF1E821D826EE371E0C9010E94440731
:10078000D9CF012B29F164E371E089819A810E941C
:100790003B07892BE9F40E945804A50194010E94AB
:1007A000B004D69EF001D79EF00D1124EA51FE4F01
:1007B000448155816081718189E491E00E946000EB
:1007C00042E050E06CE371E089E491E00E94600057
:1007D00089819A81009711F00E94EC05E114F104DF
:1007E00009F48CCF0E940A01882309F487CF0E9464
:1007F000000084CFCF93DF93C8EFD1E026978881A4
:100800009981009711F00E94EC0581E0C63ED8075F
:10081000A9F7DF91CF9108958F929F92AF92BF92E7
:10082000CF92DF92EF92FF92CF93DF93EC0168813A
:1008300079818A819B81611571058105910521F47A
:1008400064E279ED8BE597E02DE133EF41E050E094
:100850000E94B00449015A019B01AC01A7EAB1E42E
:100860000E94CF046B017C01ACEEB4EFA5019401B2
:100870000E94DD04C60ED71EE81EF91EF7FE06C054
:1008800081E0C81AD108E10880E8F80AC882D98254
:10089000EA82FB82C701B6019F77DF91CF91FF907B
:1008A000EF90DF90CF90BF90AF909F908F90089582
:1008B0008F929F92AF92BF92CF92DF92EF92FF9270
:1008C00060910001709101018091020190910301FA
:1008D000611571058105910521F464E279ED8BE5DF
:1008E00097E02DE133EF41E050E00E94B004490170
:1008F0005A019B01AC01A7EAB1E40E94CF046B014D
:100900007C01ACEEB4EFA50194010E94DD04C60E9B
:10091000D71EE81EF91EF7FE06C081E0C81AD108EE
:10092000E10880E8F80AC0920001D0920101E0924B
:100930000201F0920301C701B6019F77FF90EF908B
:10094000DF90CF90BF90AF909F908F90089560936D
:1009500000017093010180930201909303010895B7
:10096000052E97FB1EF400940E94C70457FD07D084
:100970000E94190507FC03D04EF40C94C70450954F
:100980004095309521953F4F4F4F5F4F089590957B
:100990008095709561957F4F8F4F9F4F08950E946E
:1009A0003B05A59F900DB49F900DA49F800D911DB8
:1009B00011240895B7FF0C94CF040E94CF04821B2A
:1009C000930B08952F923F924F925F926F927F9276
:1009D0008F929F92AF92BF92CF92DF92EF92FF924F
:1009E0000F931F93CF93DF93CDB7DEB7CA1BDB0BFB
:1009F0000FB6F894DEBF0FBECDBF09942A883988A0
:100A000048885F846E847D848C849B84AA84B984A6
:100A1000C884DF80EE80FD800C811B81AA81B981B2
:100A2000CE0FD11D0FB6F894DEBF0FBECDBFED01C6
:100A30000895A1E21A2EAA1BBB1BFD010DC0AA1F1F
:100A4000BB1FEE1FFF1FA217B307E407F50720F037
:100A5000A21BB30BE40BF50B661F771F881F991FB2
:100A60001A9469F760957095809590959B01AC01FB
:100A7000BD01CF010895A29FB001B39FC001A39F04
:100A8000700D811D1124911DB29F700D811D1124C7
:100A9000911D0895EE0FFF1F0590F491E02D09942C
:100AA0000F931F93CF93DF938230910510F482E070
:100AB00090E0E091FA01F091FB0130E020E0B0E03D
:100AC000A0E0309799F42115310509F44AC0281B9C
:100AD000390B24303105D8F58A819B816115710568
:100AE00089F1FB0193838283FE0111C04081518112
:100AF0000281138148175907E0F04817590799F404
:100B0000109761F012960C93129713961C933296DD
:100B1000CF01DF91CF911F910F9108950093FA01BA
:100B20001093FB01F4CF2115310551F04217530703
:100B300038F0A901DB019A01BD01DF01F801C1CF45
:100B4000EF01F9CF9093FB018093FA01CDCFFE0125
:100B5000E20FF31F81939193225031093983288347
:100B6000D7CF2091F8013091F901232B41F4209146
:100B70000601309107013093F9012093F80120918B
:100B80000401309105012115310541F42DB73EB71F
:100B90004091080150910901241B350BE091F801A7
:100BA000F091F901E217F307A0F42E1B3F0B281771
:100BB000390778F0AC014E5F5F4F2417350748F0D6
:100BC0004E0F5F1F5093F9014093F8018193919369
:100BD0009FCFF0E0E0E09CCFCF93DF930097E9F068
:100BE000FC01329713821282A091FA01B091FB01AD
:100BF000ED0130E020E01097A1F420813181820FD7
:100C0000931F2091F8013091F9012817390709F055
:100C100061C0F093F901E093F801DF91CF9108955D
:100C2000EA01CE17DF07E8F54A815B819E01411595
:100C30005105B1F7E901FB83EA8349915991C40F4A
:100C4000D51FEC17FD0761F4808191810296840F16
:100C5000951FE90199838883828193819B838A838D
:100C6000F0E0E0E012968D919C9113970097B9F512
:100C70002D913C911197CD010296820F931F2091E7
:100C8000F8013091F9012817390739F6309751F5F5
:100C90001092FB011092FA01B093F901A093F801B0
:100CA000BCCFD383C28340815181840F951FC81765
:100CB000D90761F44E5F5F4F88819981480F591FB2
:100CC000518340838A819B819383828321153105DF
:100CD00009F0B0CFF093FB01E093FA019ECFFD0144
:100CE000DC01C0CF13821282D7CFB0E0A0E0EBE7E7
:100CF000F6E00C94E4048C01009751F4CB010E94BF
:100D000050058C01C801CDB7DEB7E0E10C940005B9
:100D1000FC01E60FF71F9C0122503109E217F3078F
:100D200008F49DC0D901CD91DC911197C617D70762
:100D300098F0C530D10530F3CE0104978617970798
:100D400008F3C61BD70B2297C193D1936D937C9365
:100D5000CF010E94EC05D6CF5B01AC1ABD0A4C0155
:100D60008C0E9D1EA091FA01B091FB01512C412CDB
:100D7000F12CE12C109731F58091F8019091F90157
:100D80008815990509F05CC04616570608F058C04A
:100D90008091040190910501009741F48DB79EB7B1
:100DA0004091080150910901841B950BE817F90740
:100DB00008F055C0F093F901E093F801F90171834F
:100DC0006083A0CF8D919C91119712966C90129791
:100DD00013967C901397A815B90559F56C0142E05C
:100DE000C40ED11CCA14DB0420F1AC014A195B0902
:100DF000DA011296159780F06282738251834083E4
:100E0000D9016D937C93E114F10471F0D70113962D
:100E1000FC93EE93129776CF22968C0F9D1FF901CB
:100E200091838083F301EFCFF093FB01E093FA010C
:100E300069CF4816590608F42C017D01D3019ACFD9
:100E4000CB010E9450057C01009749F0AE01B8012A
:100E50000E943207C8010E94EC05870153CF10E0C1
:100E600000E050CFFB01DC0102C001900D92415027
:100E70005040D8F70895FB01DC018D910190801955
:100E80000110D9F3990B0895FB01DC0101900D923B
:100E90000020E1F7089510E0C5E3D0E004C0FE01B2
:100EA0000E944A052196C633D107C9F7F894FFCFAF
:100EB000010000000000FC01800000000000400173
:100EC00060008D008D01FE009C00F000546573747D
:100ED0006520310054657374652032005465737465
:100EE00065203300736F7274656172000D0A000033
:00000001FF
