:100000000C9436000C945E000C945E000C945E0020
:100010000C945E000C945E000C945E000C945E00E8
:100020000C945E000C945E000C945E000C945E00D8
:100030000C945E000C945E000C945E000C945E00C8
:100040000C9411020C945E000C9481020C945B02DF
:100050000C945E000C945E000C945E000C945E00A8
:100060000C945E000C945E00B302120411241FBEB7
:10007000CFEFD8E0DEBFCDBF11E0A0E0B1E0E0EE11
:10008000FEE002C005900D92A638B107D9F722E034
:10009000A6E8B1E001C01D92A837B207E1F710E071
:1000A000C5E3D0E004C02197FE010E946205C4337D
:1000B000D107C9F70E9427030C9463070C94000032
:1000C000AF92BF92CF92DF92EF92FF920F931F9366
:1000D000CF93DF936C017B018B01040F151FEB01A4
:1000E0005E01AE18BF08C017D10759F06991D6015B
:1000F000ED91FC910190F081E02DC6010995892BCD
:1001000079F7C501DF91CF911F910F91FF90EF908B
:10011000DF90CF90BF90AF900895FC01538D448D38
:10012000252F30E0842F90E0821B930B541710F0A2
:10013000CF96089501970895FC01918D828D9817AF
:1001400061F0A28DAE0FBF2FB11D5D968C91928D87
:100150009F5F9F73928F90E008958FEF9FEF0895B8
:100160002FB7F89480918B0190918C01A0918D0113
:10017000B0918E012FBF8093970190939801A09327
:100180009901B0939A018FE891E00E949C0097FF3B
:1001900026C02FB7F89480918B0190918C01A0918B
:1001A0008D01B0918E012FBF409197015091980120
:1001B0006091990170919A01841B950BA60BB70B66
:1001C0004091930150919401609195017091960135
:1001D00084179507A607B707B0F28FEF9FEF089532
:1001E000FC01918D828D981731F0828DE80FF11D01
:1001F000858D90E008958FEF9FEF0895FC01918D1C
:10020000228D892F90E0805C9F4F821B91098F7314
:10021000992708958FE891E00E94FE0021E0892B44
:1002200009F420E0822F089580E090E0892B29F0E6
:100230000E940A0181110C9400000895FC01A48D14
:10024000A80FB92FB11DA35ABF4F2C91848D90E0F8
:1002500001968F739927848FA689B7892C93A089DB
:10026000B1898C91837080648C93938D848D981365
:1002700006C00288F389E02D80818F7D80830895F8
:10028000EF92FF920F931F93CF93DF93EC0181E0E6
:10029000888F9B8D8C8D98131AC0E889F98980818D
:1002A00085FF15C09FB7F894EE89FF896083E889C0
:1002B000F98980818370806480839FBF81E090E0B2
:1002C000DF91CF911F910F91FF90EF900895F62E3F
:1002D0000B8D10E00F5F1F4F0F731127E02E8C8DD9
:1002E0008E110CC00FB607FCFACFE889F98980811E
:1002F00085FFF5CFCE010E941E01F1CFEB8DEC0FF3
:10030000FD2FF11DE35AFF4FF0829FB7F8940B8F3A
:10031000EA89FB8980818062CFCFCF93DF93EC01A4
:10032000888D8823B9F0AA89BB89E889F9898C91DD
:1003300085FD03C0808186FD0DC00FB607FCF7CF99
:100340008C9185FFF2CF808185FFEDCFCE010E9499
:100350001E01E9CFDF91CF9108950F931F93CF93A3
:10036000DF93EC0188819981009759F02A813B81C4
:100370002617370730F081E0DF91CF911F910F9161
:1003800008958B016F5F7F4F0E948D06009759F093
:10039000998388831B830A832C813D81232B59F702
:1003A000FC011082E8CF80E0E7CFEF92FF920F933D
:1003B0001F93CF93DF93EC017B01198218821B827C
:1003C0001A821D821C82FB0101900020E9F73197FF
:1003D0008F01061B170BB8010E94AD0128813981DE
:1003E000811113C02115310519F0C9010E940406BD
:1003F000198218821D821C821B821A82DF91CF9182
:100400001F910F91FF90EF9008951D830C83B7010A
:10041000C901DF91CF911F910F91FF90EF900C9444
:100420005C071F920F920FB60F9211242F933F93E8
:100430008F939F93AF93BF9380918B0190918C0189
:10044000A0918D01B0918E0130918A0123E0230F9C
:100450002D3758F50196A11DB11D20938A01809377
:100460008B0190938C01A0938D01B0938E018091AC
:10047000860190918701A0918801B0918901019630
:10048000A11DB11D8093860190938701A0938801DF
:10049000B0938901BF91AF919F918F913F912F911F
:1004A0000F900FBE0F901F90189526E8230F02960D
:1004B000A11DB11DD2CF1F920F920FB60F92112422
:1004C0002F933F934F935F936F937F938F939F935C
:1004D000AF93BF93EF93FF938FE891E00E941E01CB
:1004E000FF91EF91BF91AF919F918F917F916F910C
:1004F0005F914F913F912F910F900FBE0F901F90E2
:1005000018951F920F920FB60F9211242F938F936D
:100510009F93EF93FF93E0919F01F091A001808161
:10052000E091A501F091A60182FD1BC09081809110
:10053000A8018F5F8F732091A901821741F0E0918C
:10054000A801F0E0E157FE4F958F8093A801FF913D
:10055000EF919F918F912F910F900FBE0F901F9051
:1005600018958081F4CFEFE8F1E01382128288EED3
:1005700093E0A0E0B0E084839583A683B7838EE008
:1005800091E09183808385EC90E09587848784EC6B
:1005900090E09787868780EC90E0918B808B81EC50
:1005A00090E0938B828B82EC90E0958B848B86EC31
:1005B00090E0978B868B118E128E138E148E6CE1C9
:1005C00071E08CE292E00E94D50164E271E082E386
:1005D00092E00E94D5016EE271E088E392E00E9411
:1005E000D50165E371E08EE392E00E94D5016BE3F3
:1005F00071E084E492E00E94D50160E471E08AE455
:1006000092E00E94D50166E471E080E592E00E94EC
:10061000D5016CE471E086E592E00E94D50163E5C6
:1006200071E08CE592E00E94D5016CE571E082E614
:1006300092E00E94D50164E671E088E692E00E94B3
:10064000D5016DE671E08EE692E00C94D501CF9372
:10065000DF93CDB7DEB728970FB6F894DEBF0FBE95
:10066000CDBF789484B5826084BD84B5816084BD3B
:1006700085B5826085BD85B5816085BD80916E0040
:10068000816080936E001092810080918100826071
:1006900080938100809181008160809381008091AE
:1006A00080008160809380008091B100846080939D
:1006B000B1008091B00081608093B00080917A0099
:1006C000846080937A0080917A00826080937A00BF
:1006D00080917A00816080937A0080917A008068AE
:1006E00080937A001092C100E0919F01F091A001E7
:1006F00082E08083E0919B01F0919C011082E09167
:100700009D01F0919E018FEC80831092A701E091F2
:10071000A301F091A40186E08083E091A101F09112
:10072000A201808180618083E091A101F091A2010A
:10073000808188608083E091A101F091A201808195
:1007400080688083E091A101F091A20180818F7D7A
:1007500080838CE0882E912CA12CB12C96E0D92E90
:1007600020E0E22E20E0F22E64E871E0CE01019656
:100770000E94D5010E94B0000D811E8197FD19C015
:100780008F8318860F5F1F4FB801CE0101960E941C
:10079000AD01882379F329813A818D819E81BE0143
:1007A000695F7F4F820F931F0E945C071E830D833A
:1007B000E1CF012B29F166E771E089819A810E94DE
:1007C0005307892BE9F40E947004A50194010E944B
:1007D000C804D69EF001D79EF00D1124E45DFD4FB4
:1007E00044815581608171818FE891E00E946000B1
:1007F00042E050E062E871E08FE891E00E94600022
:1008000089819A81009711F00E940406E114F10495
:1008100009F4AACF0E940A01882309F4A5CF0E94F7
:100820000000A2CFCF93DF93C4E7D2E02697888160
:100830009981009711F00E94040682E0CC32D8071B
:10084000A9F7DF91CF9108958F929F92AF92BF92B7
:10085000CF92DF92EF92FF92CF93DF93EC0168810A
:1008600079818A819B81611571058105910521F44A
:1008700064E279ED8BE597E02DE133EF41E050E064
:100880000E94C80449015A019B01AC01A7EAB1E4E6
:100890000E94E7046B017C01ACEEB4EFA50194016A
:1008A0000E94F504C60ED71EE81EF91EF7FE06C00C
:1008B00081E0C81AD108E10880E8F80AC882D98224
:1008C000EA82FB82C701B6019F77DF91CF91FF904B
:1008D000EF90DF90CF90BF90AF909F908F90089552
:1008E0008F929F92AF92BF92CF92DF92EF92FF9240
:1008F00060910001709101018091020190910301CA
:10090000611571058105910521F464E279ED8BE5AE
:1009100097E02DE133EF41E050E00E94C804490127
:100920005A019B01AC01A7EAB1E40E94E7046B0104
:100930007C01ACEEB4EFA50194010E94F504C60E53
:10094000D71EE81EF91EF7FE06C081E0C81AD108BE
:10095000E10880E8F80AC0920001D0920101E0921B
:100960000201F0920301C701B6019F77FF90EF905B
:10097000DF90CF90BF90AF909F908F90089560933D
:100980000001709301018093020190930301089587
:10099000052E97FB1EF400940E94DF0457FD07D03C
:1009A0000E94310507FC03D04EF40C94DF045095EF
:1009B0004095309521953F4F4F4F5F4F089590954B
:1009C0008095709561957F4F8F4F9F4F08950E943E
:1009D0005305A59F900DB49F900DA49F800D911D70
:1009E00011240895B7FF0C94E7040E94E704821BCA
:1009F000930B08952F923F924F925F926F927F9246
:100A00008F929F92AF92BF92CF92DF92EF92FF921E
:100A10000F931F93CF93DF93CDB7DEB7CA1BDB0BCA
:100A20000FB6F894DEBF0FBECDBF09942A8839886F
:100A300048885F846E847D848C849B84AA84B98476
:100A4000C884DF80EE80FD800C811B81AA81B98182
:100A5000CE0FD11D0FB6F894DEBF0FBECDBFED0196
:100A60000895A1E21A2EAA1BBB1BFD010DC0AA1FEF
:100A7000BB1FEE1FFF1FA217B307E407F50720F007
:100A8000A21BB30BE40BF50B661F771F881F991F82
:100A90001A9469F760957095809590959B01AC01CB
:100AA000BD01CF010895A29FB001B39FC001A39FD4
:100AB000700D811D1124911DB29F700D811D112497
:100AC000911D0895EE0FFF1F0590F491E02D0994FC
:100AD0000F931F93CF93DF938230910510F482E040
:100AE00090E0E0917602F091770230E020E0B0E013
:100AF000A0E0309799F42115310509F44AC0281B6C
:100B0000390B24303105D8F58A819B816115710537
:100B100089F1FB0193838283FE0111C040815181E1
:100B20000281138148175907E0F04817590799F4D3
:100B3000109761F012960C93129713961C933296AD
:100B4000CF01DF91CF911F910F910895009376020D
:100B500010937702F4CF2115310551F04217530756
:100B600038F0A901DB019A01BD01DF01F801C1CF15
:100B7000EF01F9CF9093770280937602CDCFFE01FB
:100B8000E20FF31F81939193225031093983288317
:100B9000D7CF2091740230917502232B41F420911C
:100BA0000601309107013093750220937402209161
:100BB0000401309105012115310541F42DB73EB7EF
:100BC0004091080150910901241B350BE0917402FA
:100BD000F0917502E217F307A0F42E1B3F0B2817C4
:100BE000390778F0AC014E5F5F4F2417350748F0A6
:100BF0004E0F5F1F5093750240937402819391933F
:100C00009FCFF0E0E0E09CCFCF93DF930097E9F037
:100C1000FC01329713821282A0917602B091770282
:100C2000ED0130E020E01097A1F420813181820FA6
:100C3000931F20917402309175022817390709F02B
:100C400061C0F0937502E0937402DF91CF91089533
:100C5000EA01CE17DF07E8F54A815B819E01411565
:100C60005105B1F7E901FB83EA8349915991C40F1A
:100C7000D51FEC17FD0761F4808191810296840FE6
:100C8000951FE90199838883828193819B838A835D
:100C9000F0E0E0E012968D919C9113970097B9F5E2
:100CA0002D913C911197CD010296820F931F2091B7
:100CB0007402309175022817390739F6309751F5CB
:100CC0001092770210927602B0937502A09374028C
:100CD000BCCFD383C28340815181840F951FC81735
:100CE000D90761F44E5F5F4F88819981480F591F82
:100CF000518340838A819B819383828321153105AF
:100D000009F0B0CFF0937702E09376029ECFFD0119
:100D1000DC01C0CF13821282D7CFB0E0A0E0E3E9BC
:100D2000F6E00C94FC048C01009751F4CB010E9476
:100D300068058C01C801CDB7DEB7E0E10C94180559
:100D4000FC01E60FF71F9C0122503109E217F3075F
:100D500008F49DC0D901CD91DC911197C617D70732
:100D600098F0C530D10530F3CE0104978617970768
:100D700008F3C61BD70B2297C193D1936D937C9335
:100D8000CF010E940406D6CF5B01AC1ABD0A4C010C
:100D90008C0E9D1EA0917602B0917702512C412CB1
:100DA000F12CE12C109731F580917402909175022D
:100DB0008815990509F05CC04616570608F058C01A
:100DC0008091040190910501009741F48DB79EB781
:100DD0004091080150910901841B950BE817F90710
:100DE00008F055C0F0937502E0937402F901718325
:100DF0006083A0CF8D919C91119712966C90129761
:100E000013967C901397A815B90559F56C0142E02B
:100E1000C40ED11CCA14DB0420F1AC014A195B09D1
:100E2000DA011296159780F06282738251834083B3
:100E3000D9016D937C93E114F10471F0D7011396FD
:100E4000FC93EE93129776CF22968C0F9D1FF9019B
:100E500091838083F301EFCFF0937702E0937602E2
:100E600069CF4816590608F42C017D01D3019ACFA9
:100E7000CB010E9468057C01009749F0AE01B801E2
:100E80000E944A07C8010E940406870153CF10E060
:100E900000E050CFFB01DC0102C001900D924150F7
:100EA0005040D8F70895FB01DC018D910190801925
:100EB0000110D9F3990B0895FB01DC0101900D920B
:100EC0000020E1F7089510E0C5E3D0E004C0FE0182
:100ED0000E9462052196C633D107C9F7F894FFCF67
:100EE00001000000000078028000000000004001C6
:100EF00060008D008D01FE009C00F0004A616E656F
:100F000069726F0046657665726569726F004D6142
:100F100072C3A76F00416272696C004D61696F0016
:100F20004A756E686F004A756C686F0041676F7331
:100F3000746F00536574656D62726F004F757475E0
:100F400062726F004E6F76656D62726F0044657AF3
:100F5000656D62726F00736F72746561725F6D654B
:060F600073000D0A000001
:00000001FF
