:100000000C945C000C946E000C946E000C946E00CA
:100010000C946E000C946E000C946E000C946E00A8
:100020000C946E000C946E000C946E000C946E0098
:100030000C946E000C946E000C946E000C946E0088
:100040000C9433010C946E000C946E000C946E00B2
:100050000C946E000C946E000C946E000C946E0068
:100060000C946E000C946E00000000080002010069
:100070000003040700000000000000000000000072
:10008000250028002B0000000000240027002A0083
:10009000040404040404040402020202020203032E
:1000A0000303030301020408102040800102040836
:1000B000102001020408102011241FBECFEFD8E049
:1000C000DEBFCDBF21E0A0E0B1E001C01D92AB30AA
:1000D000B207E1F70E947D010C9472030C940000BA
:1000E00090E0FC01E859FF4F2491FC01EC55FF4FD3
:1000F0003491FC01E057FF4FE491EE23C9F0222335
:1001000039F0233001F1A8F4213019F1223029F11E
:10011000F0E0EE0FFF1FE458FF4FA591B4918FB7A9
:10012000F894EC91611126C030953E233C938FBF2B
:1001300008952730A9F02830C9F0243049F780917C
:1001400080008F7D03C0809180008F778093800036
:10015000DFCF84B58F7784BDDBCF84B58F7DFBCFB8
:100160008091B0008F778093B000D2CF8091B000A3
:100170008F7DF9CF3E2BDACF3FB7F8948091050100
:1001800090910601A0910701B091080126B5A89BA6
:1001900005C02F3F19F00196A11DB11D3FBFBA2F19
:1001A000A92F982F8827BC01CD01620F711D811DD9
:1001B000911D42E0660F771F881F991F4A95D1F75E
:1001C00008958F929F92AF92BF92CF92DF92EF925B
:1001D000FF920E94BC004B015C018EEEC82E82E0B3
:1001E000D82EE12CF12C0E94BC00681979098A09EB
:1001F0009B09683E734081059105A8F321E0C21A6E
:10020000D108E108F10888EE880E83E0981EA11C51
:10021000B11CC114D104E104F10429F7FF90EF905F
:10022000DF90CF90BF90AF909F908F900895CF9325
:10023000DF9383E090E090930A0180930901C091DD
:100240000901D0910A01CB30D10554F460E08C2F24
:100250000E9470002196D0930A01C0930901EFCF4C
:10026000DF91CF9108951F920F920FB60F92112434
:100270002F933F938F939F93AF93BF9380910101EF
:1002800090910201A0910301B0910401309100010D
:1002900023E0230F2D3758F50196A11DB11D2093A2
:1002A00000018093010190930201A0930301B09398
:1002B00004018091050190910601A0910701B09180
:1002C00008010196A11DB11D8093050190930601BF
:1002D000A0930701B0930801BF91AF919F918F91B7
:1002E0003F912F910F900FBE0F901F90189526E809
:1002F000230F0296A11DB11DD2CF789484B58260E0
:1003000084BD84B5816084BD85B5826085BD85B5B9
:10031000816085BD80916E00816080936E00109237
:1003200081008091810082608093810080918100B2
:100330008160809381008091800081608093800043
:100340008091B10084608093B1008091B0008160A1
:100350008093B00080917A00846080937A008091CD
:100360007A00826080937A0080917A008160809325
:100370007A0080917A00806880937A001092C100A0
:1003800083E090E090930A01809309018091090134
:1003900090910A018B3091050CF480C1C0E0D0E04F
:1003A00061E08AE00E94700061E089E00E947000D4
:1003B00061E088E00E94700061E087E00E947000C8
:1003C00061E086E00E94700061E085E00E947000BC
:1003D0000E94E1000E94170161E089E00E94700024
:1003E00061E088E00E9470000E94E1000E94170115
:1003F00061E08AE00E94700061E089E00E94700084
:1004000061E084E00E94700061E087E00E9470007B
:1004100061E086E00E9470000E94E1000E941701E6
:1004200061E08AE00E94700061E089E00E94700053
:1004300061E088E00E94700061E087E00E94700047
:1004400061E084E00E9470000E94E1000E941701B8
:1004500061E089E00E94700061E088E00E94700025
:1004600061E085E00E94700061E084E00E9470001D
:100470000E94E1000E94170161E08AE00E94700082
:1004800061E088E00E94700061E087E00E947000F7
:1004900061E085E00E94700061E084E00E947000ED
:1004A0000E94E1000E94170161E08AE00E94700052
:1004B00061E088E00E94700061E087E00E947000C7
:1004C00061E086E00E94700061E085E00E947000BB
:1004D00061E084E00E9470000E94E1000E94170128
:1004E00061E08AE00E94700061E089E00E94700093
:1004F00061E088E00E9470000E94E1000E94170104
:1005000061E08AE00E94700061E089E00E94700072
:1005100061E088E00E94700061E087E00E94700066
:1005200061E086E00E94700061E085E00E9470005A
:1005300061E084E00E9470000E94E1000E941701C7
:1005400061E08AE00E94700061E089E00E94700032
:1005500061E088E00E94700061E085E00E94700028
:1005600061E084E00E9470000E94E1000E94170197
:1005700061E08AE00E94700061E089E00E94700002
:1005800061E088E00E94700061E086E00E947000F7
:1005900061E085E00E94700061E084E00E947000EC
:1005A0000E94E1000E94170161E084E00E94700057
:1005B00061E088E00E94700061E087E00E947000C6
:1005C00061E086E00E94700061E085E00E947000BA
:1005D0000E94E1000E94170161E08AE00E94700021
:1005E00061E085E00E94700061E087E00E94700099
:1005F00061E086E00E9470000E94E1000E94170105
:1006000061E089E00E94700061E088E00E94700073
:1006100061E087E00E94700061E086E00E94700067
:1006200061E084E00E9470000E94E1000E941701D6
:1006300061E08AE00E94700061E089E00E94700041
:1006400061E087E00E94700061E086E00E94700037
:1006500061E085E00E94700061E084E00E9470002B
:100660000E94E1000E94170161E08AE00E94700090
:1006700061E086E00E94700061E085E00E94700009
:1006800061E084E00E9470000E94E1000E94170176
:10069000209709F485CE0E94000082CE9927FC01A4
:1006A000EC55FF4F249180579F4FFC018491882384
:1006B00099F090E0880F991FFC01EA57FF4FA59130
:1006C000B491FC01E458FF4F859194918FB7F89451
:1006D000EC91E22BEC938FBF8091090190910A017C
:0806E000019650CEF894FFCF03
:00000001FF
