:100000000C9463000C948B000C948B000C948B006C
:100010000C948B000C948B000C948B000C948B0034
:100020000C948B000C948B000C948B000C948B0024
:100030000C948B000C948B000C948B000C948B0014
:100040000C94A1030C948B000C946F030C94490343
:100050000C948B000C948B000C948B000C948B00F4
:100060000C948B000C948B000000000024002700EF
:100070002A000000000023002600290000000000E4
:10008000250028002B0004040404040404040202D4
:100090000202020203030303030301020408102007
:1000A0004080010204081020010204081020000012
:1000B0000008000201000003040700000000000027
:1000C0000000EB031B0611241FBECFEFD8E0DEBFFC
:1000D000CDBF11E0A0E0B1E0EEEDF2E102C005908D
:1000E0000D92A835B107D9F722E0A8E5B1E001C02B
:1000F0001D92AE30B207E1F710E0C2E6D0E004C0D6
:100100002197FE010E946107C136D107C9F70E94FD
:1001100035040C9462090C9400000895AF92BF92CC
:10012000CF92DF92EF92FF920F931F93CF93DF93C3
:100130006C017B018B01040F151FEB015E01AE18F2
:10014000BF08C017D10759F06991D601ED91FC9114
:100150000190F081E02DC6010995892B79F7C50141
:10016000DF91CF911F910F91FF90EF90DF90CF9093
:10017000BF90AF900895FC01538D448D252F30E042
:10018000842F90E0821B930B541710F0CF960895A4
:1001900001970895FC01918D828D981761F0A28DD1
:1001A000AE0FBF2FB11D5D968C91928D9F5F9F7397
:1001B000928F90E008958FEF9FEF08952FB7F894F6
:1001C00080915D0190915E01A0915F01B09160010D
:1001D0002FBF8093690190936A01A0936B01B09344
:1001E0006C0181E691E00E94CA0097FF26C02FB7FC
:1001F000F89480915D0190915E01A0915F01B091B2
:1002000060012FBF4091690150916A0160916B01BB
:1002100070916C01841B950BA60BB70B4091650187
:10022000509166016091670170916801841795078C
:10023000A607B707B0F28FEF9FEF0895FC01918DED
:10024000828D981731F0828DE80FF11D858D90E039
:1002500008958FEF9FEF0895FC01918D228D892FD6
:1002600090E0805C9F4F821B91098F7399270895BE
:1002700081E691E00E942C0121E0892B09F420E025
:10028000822F089580E090E0892B29F00E943801A8
:1002900081110C9400000895FC01A48DA80FB92FC2
:1002A000B11DA35ABF4F2C91848D90E001968F739E
:1002B0009927848FA689B7892C93A089B1898C91BD
:1002C000837080648C93938D848D981306C002880C
:1002D000F389E02D80818F7D80830895EF92FF92D6
:1002E0000F931F93CF93DF93EC0181E0888F9B8D59
:1002F0008C8D98131AC0E889F989808185FF15C013
:100300009FB7F894EE89FF896083E889F989808135
:100310008370806480839FBF81E090E0DF91CF9104
:100320001F910F91FF90EF900895F62E0B8D10E026
:100330000F5F1F4F0F731127E02E8C8D8E110CC095
:100340000FB607FCFACFE889F989808185FFF5CFE0
:10035000CE010E944C01F1CFEB8DEC0FFD2FF11D72
:10036000E35AFF4FF0829FB7F8940B8FEA89FB891D
:1003700080818062CFCFCF93DF93EC01888D88237B
:10038000B9F0AA89BB89E889F9898C9185FD03C0F8
:10039000808186FD0DC00FB607FCF7CF8C9185FFDD
:1003A000F2CF808185FFEDCFCE010E944C01E9CFD5
:1003B000DF91CF910895833081F028F4813099F056
:1003C0008230A9F008958730A9F08830C9F08430D0
:1003D000B1F4809180008F7D03C0809180008F7781
:1003E00080938000089584B58F7784BD089584B587
:1003F0008F7DFBCF8091B0008F778093B000089500
:100400008091B0008F7DF9CF1F93CF93DF93E4EB02
:10041000F0E09491E0EAF0E0D491ECE8F0E0C491EF
:10042000CC23B9F0182F992319F0892F0E94DB01F2
:10043000EC2FF0E0EE0FFF1FE458FF4FA591B491B1
:100440008FB7F894EC91111108C0D095DE23DC939E
:100450008FBFDF91CF911F910895DE2BF8CF3FB76B
:10046000F8948091590190915A01A0915B01B0914B
:100470005C0126B5A89B05C02F3F19F00196A11D70
:10048000B11D3FBFBA2FA92F982F8827BC01CD01DE
:10049000620F711D811D911D42E0660F771F881F3D
:1004A000991F4A95D1F708958F929F92AF92BF926C
:1004B000CF92DF92EF92FF920E942F024B015C01DC
:1004C00084EFC82EDD24D394E12CF12C0E942F025E
:1004D000681979098A099B09683E7340810591056D
:1004E000A8F321E0C21AD108E108F10888EE880ECD
:1004F00083E0981EA11CB11CC114D104E104F104D5
:1005000029F7FF90EF90DF90CF90BF90AF909F9032
:100510008F900895CF93DF93C6E0D0E081E00E94F2
:1005200004020E94540280E00E9404020E945402CD
:100530002197A1F7DF91CF91089542E050E06CE15F
:1005400071E081E691E00C948E00CF93DF93FC0183
:10055000448155816081718181E691E00E948E0025
:10056000EC010E949D028C0F9D1FDF91CF91089599
:10057000CF93DF93FC0101900020E9F73197AF01A1
:10058000481B590BBC0181E691E00E948E00EC01F2
:100590000E949D028C0F9D1FDF91CF910895FC0159
:1005A00080819181009711F00C9403080895FC015B
:1005B00024813581232B39F421E0FB0180818823BC
:1005C00049F020E007C0808191810E94520921E01A
:1005D000892BB9F7822F08950F931F93CF93DF9341
:1005E000EC0188819981009759F02A813B81261777
:1005F000370730F081E0DF91CF911F910F9108957F
:100600008B016F5F7F4F0E948C08009759F0998390
:1006100088831B830A832C813D81232B59F7FC019E
:100620001082E8CF80E0E7CFEF92FF920F931F9305
:10063000CF93DF93EC017B018A01BA010E94EC02A7
:1006400028813981811114C02115310519F0C901A2
:100650000E940308198218821D821C821B821A8242
:10066000CE01DF91CF911F910F91FF90EF900895F0
:100670001D830C83B701C9010E945B09F1CFFB0107
:1006800001900020E9F73197AF01461B570B0C94FE
:1006900014031F920F920FB60F9211242F933F93C2
:1006A0004F935F936F937F938F939F93AF93BF937A
:1006B000EF93FF9381E691E00E944C01FF91EF914F
:1006C000BF91AF919F918F917F916F915F914F916A
:1006D0003F912F910F900FBE0F901F9018951F9272
:1006E0000F920FB60F9211242F938F939F93EF9336
:1006F000FF93E0917101F09172018081E0917701A7
:10070000F091780182FD1BC0908180917A018F5F0A
:100710008F7320917B01821741F0E0917A01F0E024
:10072000EF59FE4F958F80937A01FF91EF919F9142
:100730008F912F910F900FBE0F901F901895808171
:10074000F4CF1F920F920FB60F9211242F933F9365
:100750008F939F93AF93BF9380915D0190915E01C2
:10076000A0915F01B09160013091580123E0230F07
:100770002D3758F50196A11DB11D20935801809386
:100780005D0190935E01A0935F01B0936001809141
:10079000590190915A01A0915B01B0915C010196C1
:1007A000A11DB11D8093590190935A01A0935B0143
:1007B000B0935C01BF91AF919F918F913F912F9129
:1007C0000F900FBE0F901F90189526E8230F0296EA
:1007D000A11DB11DD2CFE1E6F1E01382128288EEB5
:1007E00093E0A0E0B0E084839583A683B7838EE096
:1007F00091E09183808385EC90E09587848784ECF9
:1008000090E09787868780EC90E0918B808B81ECDD
:1008100090E0938B828B82EC90E0958B848B86ECBE
:1008200090E0978B868B118E128E138E148EE4E0DF
:10083000F2E011821082138212821582148250E03B
:1008400040E06EE171E0CF010E941403EEEFF1E0B1
:1008500011821082138212821582148250E040E0CD
:100860006EE171E0CF010C941403CF93DF93CDB709
:10087000DEB728970FB6F894DEBF0FBECDBF7894D1
:1008800084B5826084BD84B5816084BD85B5826095
:1008900085BD85B5816085BD80916E008160809346
:1008A0006E001092810080918100826080938100AF
:1008B00080918100816080938100809180008160BF
:1008C000809380008091B10084608093B10080911A
:1008D000B00081608093B00080917A008460809342
:1008E0007A0080917A00826080937A0080917A0009
:1008F000816080937A0080917A00806880937A008A
:100900001092C1000FE910E0F80124916BE8E62E87
:1009100060E0F62EF70184918823C9F090E0880FFB
:10092000991FFC01E859FF4FA591B491FC01E458CF
:10093000FF4F459154919FB7F8943C91822F809539
:1009400083238C93FA018081282B20839FBFE0EAC8
:10095000F0E02491ECE8F0E08491882399F090E0B5
:10096000880F991FFC01E859FF4FA591B491FC0134
:10097000E458FF4F859194918FB7F894EC91E22B56
:10098000EC938FBFE0917101F091720182E080835E
:10099000E0916D01F0916E011082E0916F01F09194
:1009A00070018FEC808310927901E0917501F091D4
:1009B000760186E08083E0917301F091740180817B
:1009C00080618083E0917301F0917401808188607F
:1009D0008083E0917301F09174018081806880834D
:1009E000E0917301F091740180818F7D808393EB9E
:1009F000A92E90E0B92E22E0422E512C612C712CB0
:100A000030E0832E30E0932E1A8219821C821B82E2
:100A10001E821D8250E040E06EE171E0CE01019641
:100A20000E9414030E94DE0097FD1CC08F8318866D
:100A3000CD80DE80FFEFCF1ADF0AB601CE0101962E
:100A40000E94EC02882371F329813A818D819E8175
:100A5000BE01695F7F4F820F931F0E945B09DE8298
:100A6000CD82E0CF8091040290910502009709F4B5
:100A70008CC069817A816115710509F484C0409147
:100A80000602509107022D813E814217530708F458
:100A90007AC00E945B098D819E81909309028093A8
:100AA00008021E821D82CE0101960E94CF0261E2E1
:100AB00071E084E092E00E94D702882331F06FE178
:100AC00071E08EEF91E00E943F036FE171E084E0FE
:100AD00092E00E94D702882331F061E271E08EEF4C
:100AE00091E00E943F03F5018491F801D490F70151
:100AF000C490C11061C00E946F06A30192010E94C0
:100B0000C7066115710509F072C061E271E084E009
:100B100092E00E94D7028823B1F084E092E00E9424
:100B2000A50285E291E00E94B8020E948A026EE16D
:100B300071E084E092E00E943F036EE171E08EEF8D
:100B400091E00E943F0361E271E08EEF91E00E942C
:100B5000D702882309F43FC08EEF91E00E94A502DE
:100B60008EE391E00E94B8020E948A026EE171E079
:100B700084E092E00E943F036EE171E08EEF91E02D
:100B80000E943F0328C00E94030889819A819093A4
:100B90000502809304028B819C81909307028093CD
:100BA00006028D819E8190930902809308021A8229
:100BB00019821C821B8275CF81110E94DB01EC2DF2
:100BC000F0E0EE0FFF1FEE58FF4FA591B4918C910E
:100BD000D82209F490CF8114910409F415CF0E9412
:100BE0003801882309F410CF0E9400000DCF613036
:100BF000710589F76FE171E084E092E00E94D7020D
:100C00008823B1F084E092E00E94A50285E291E0A1
:100C10000E94B8020E948A026EE171E084E092E0D4
:100C20000E943F036EE171E08EEF91E00E943F036E
:100C30006FE171E08ACF8EEF91E00E94CF0284E0F5
:100C400092E00C94CF028F929F92AF92BF92CF927C
:100C5000DF92EF92FF92CF93DF93EC01688179816D
:100C60008A819B81611571058105910521F464E2FA
:100C700079ED8BE597E02DE133EF41E050E00E9404
:100C8000C70649015A019B01AC01A7EAB1E40E94E1
:100C9000E6066B017C01ACEEB4EFA50194010E9465
:100CA000F406C60ED71EE81EF91EF7FE06C081E048
:100CB000C81AD108E10880E8F80AC882D982EA8215
:100CC000FB82C701B6019F77DF91CF91FF90EF9034
:100CD000DF90CF90BF90AF909F908F9008958F92AC
:100CE0009F92AF92BF92CF92DF92EF92FF9260916C
:100CF0000001709101018091020190910301611541
:100D000071058105910521F464E279ED8BE597E0A9
:100D10002DE133EF41E050E00E94C70649015A013E
:100D20009B01AC01A7EAB1E40E94E6066B017C01DD
:100D3000ACEEB4EFA50194010E94F406C60ED71ED6
:100D4000E81EF91EF7FE06C081E0C81AD108E108C6
:100D500080E8F80AC0920001D0920101E0920201FD
:100D6000F0920301C701B6019F77FF90EF90DF90EB
:100D7000CF90BF90AF909F908F90089560930001A7
:100D80007093010180930201909303010895052E51
:100D900097FB1EF400940E94DE0657FD07D00E94C8
:100DA000300707FC03D04EF40C94DE0650954095B6
:100DB000309521953F4F4F4F5F4F08959095809507
:100DC000709561957F4F8F4F9F4F08950E945207F6
:100DD000A59F900DB49F900DA49F800D911D11248F
:100DE0000895B7FF0C94E6060E94E606821B930B5B
:100DF00008952F923F924F925F926F927F928F92BF
:100E00009F92AF92BF92CF92DF92EF92FF920F9399
:100E10001F93CF93DF93CDB7DEB7CA1BDB0B0FB6A3
:100E2000F894DEBF0FBECDBF09942A883988488860
:100E30005F846E847D848C849B84AA84B984C884F6
:100E4000DF80EE80FD800C811B81AA81B981CE0FED
:100E5000D11D0FB6F894DEBF0FBECDBFED010895D2
:100E6000A1E21A2EAA1BBB1BFD010DC0AA1FBB1FAE
:100E7000EE1FFF1FA217B307E407F50720F0A21B20
:100E8000B30BE40BF50B661F771F881F991F1A948D
:100E900069F760957095809590959B01AC01BD01B7
:100EA000CF010895A29FB001B39FC001A39F700D11
:100EB000811D1124911DB29F700D811D1124911D62
:100EC0000895EE0FFF1F0590F491E02D09940F9304
:100ED0001F93CF93DF938230910510F482E090E06E
:100EE000E0910C02F0910D0230E020E0B0E0A0E0D3
:100EF000309799F42115310509F44AC0281B390BA4
:100F000024303105D8F58A819B816115710589F1FD
:100F1000FB0193838283FE0111C0408151810281D4
:100F2000138148175907E0F04817590799F41097AB
:100F300061F012960C93129713961C933296CF0180
:100F4000DF91CF911F910F91089500930C021093A0
:100F50000D02F4CF2115310551F04217530738F037
:100F6000A901DB019A01BD01DF01F801C1CFEF0149
:100F7000F9CF90930D0280930C02CDCFFE01E20FCA
:100F8000F31F819391932250310939832883D7CF5E
:100F900020910A0230910B02232B41F4209106018B
:100FA0003091070130930B0220930A022091040133
:100FB000309105012115310541F42DB73EB740911F
:100FC000080150910901241B350BE0910A02F091B0
:100FD0000B02E217F307A0F42E1B3F0B281739076B
:100FE00078F0AC014E5F5F4F2417350748F04E0F85
:100FF0005F1F50930B0240930A02819391939FCFFE
:10100000F0E0E0E09CCFCF93DF930097E9F0FC01A4
:10101000329713821282A0910C02B0910D02ED0161
:1010200030E020E01097A1F420813181820F931FDE
:1010300020910A0230910B022817390709F061C08C
:10104000F0930B02E0930A02DF91CF910895EA0139
:10105000CE17DF07E8F54A815B819E0141155105F6
:10106000B1F7E901FB83EA8349915991C40FD51F78
:10107000EC17FD0761F4808191810296840F951F22
:10108000E90199838883828193819B838A83F0E03D
:10109000E0E012968D919C9113970097B9F52D91F0
:1010A0003C911197CD010296820F931F20910A0265
:1010B00030910B022817390739F6309751F5109205
:1010C0000D0210920C02B0930B02A0930A02BCCF47
:1010D000D383C28340815181840F951FC817D907DC
:1010E00061F44E5F5F4F88819981480F591F51838A
:1010F00040838A819B81938382832115310509F086
:10110000B0CFF0930D02E0930C029ECFFD01DC0105
:10111000C0CF13821282D7CFB0E0A0E0E2E9F8E0BE
:101120000C94FB068C01009751F4CB010E946707D9
:101130008C01C801CDB7DEB7E0E10C941707FC01C4
:10114000E60FF71F9C0122503109E217F30708F45C
:101150009DC0D901CD91DC911197C617D70798F0A2
:10116000C530D10530F3CE0104978617970708F3F1
:10117000C61BD70B2297C193D1936D937C93CF015C
:101180000E940308D6CF5B01AC1ABD0A4C018C0E3D
:101190009D1EA0910C02B0910D02512C412CF12CFE
:1011A000E12C109731F580910A0290910B0288157D
:1011B000990509F05CC04616570608F058C08091A2
:1011C000040190910501009741F48DB79EB74091BD
:1011D000080150910901841B950BE817F90708F0E5
:1011E00055C0F0930B02E0930A02F901718360830A
:1011F000A0CF8D919C91119712966C901297139697
:101200007C901397A815B90559F56C0142E0C40EFE
:10121000D11CCA14DB0420F1AC014A195B09DA01C4
:101220001296159780F06282738251834083D901B0
:101230006D937C93E114F10471F0D7011396FC9344
:10124000EE93129776CF22968C0F9D1FF901918312
:101250008083F301EFCFF0930D02E0930C0269CF8E
:101260004816590608F42C017D01D3019ACFCB0111
:101270000E9467077C01009749F0AE01B8010E9407
:101280004909C8010E940308870153CF10E000E01C
:1012900050CFFB01DC0102C001900D924150504043
:1012A000D8F70895FB01DC018D91019080190110A0
:1012B000D9F3990B0895FB01DC0101900D920020F8
:1012C000E1F7089510E0C2E6D0E004C0FE010E94FC
:0E12D00061072196C336D107C9F7F894FFCF06
:1012DE000100000000000E028000000000006E0100
:1012EE008E00BB00BB012C01CA001E010D0A006955
:1012FE006D706172004F206A6F6761646F72206E4D
:10130E00C2BA312067616E686F75212121004F20AE
:10131E006A6F6761646F72206EC2BA322067616E47
:08132E00686F75212121000008
:00000001FF
